S00F00005465737453756974202000006B
S3210000050010481149FF22814202D90270401CFAE70E480F490022814202D90270D9
S3210000051C401CFAE70C480D490D4A124208D003780B7000F1010001F10101A2F1E4
S321000005380102F4D10BF089FCFEE7000000F0FE1F0040FF1F0000FE1F2021FE1F8E
S32100000554600500000000FE1F0000000070B50A2807D21F4B53F8203088185B6A69
S32100000570441EA14201D9002012E0002002465D68AA420DD21E680C2502FB056522
S3210000058C2E68B14204D36E68B44201D8A86801E00132EEE770BD70B5062807D2F6
S321000005A80F4B53F8203088185B6A441EA14201D9002012E0002002465D68AA428D
S321000005C40DD21E680C2502FB05652E68B14204D36E68B44201D8A86801E00132EF
S321000005E0EEE770BD74F3020024F30200027D036811400DD001695960012199601F
S321000005FC8369C26801464068012B01D1CC4B00E0CC4B18479960704701688A6862
S32100000618012A05D100228A600146C84A40681047704710B586B00446006842684D
S3210000063422B1C44B60682146984700E08260A16AE26AC14B606A98470100606A1B
S32100000650A26A006CE36A06D0029203930090BC4B6A46A420984706B010BD10B591
S3210000066C86B004460068426822B1B44B60682146984700E08260B449606A8847A2
S321000006880100606A006C04D0AF4B00906A46A520984706B010BD10B586B004469F
S321000006A40068426822B1A74B60682146984700E08260A849606A8847011E03D011
S321000006C0A34B6A46A620984706B010BDF0B54568044600686D6A426822B19B4B14
S321000006DC60682146984700E082609D4A566A30680068C0688021878A8182286818
S321000006F80169013101610069606A80472868016901690139016130680068C068C0
S321000007148782F0BDF0B505460C4600688168012902D040F205200FE006688C49F5
S32100000730686888478B4A07466868314690478A4B014668683A46984720600020DD
S3210000074CF0BD70B50346066840F20714B068F0B94FF40274D9B158684FF48164C9
S321000007680568A94215D895424FF4A16411D3C5680124AA4201D202B10024002C13
S3210000078440F6082407D0012472600A4619466A4BB46098470024204670BD70B5F0
S321000007A00446056840F20710AB68002B2BD16368186888422CBF01200020012695
S321000007BC00B906464FF48160FEB1186890422CBF01200020012600B906464FF456
S321000007D8A160A6B1DE680120B24201D202B10020012600B9064640F6082046B125
S321000007F40120A8606A601846504B0A4621469847002070BD00B501688A68012AD9
S3210000081002D040F2052006E000228A600146494A40689047002000BD10B54C4B19
S3210000082C0A2802D340F203101EE05A6A12681268D3689B8ADB0601D1022015E07E
S3210000084892699469136903F0010352691C43224301D00C200AE0434A52F82000C6
S32100000864406802680A6002694A60C0688860002010BDF0B581B0384B0A2802D384
S3210000088040F2031037E00F46596A09680968CA68928AD20601D102202DE08969E7
S3210000089C8B690A6902F0010249691343194301D00C2022E02E4980004458EFF306
S321000008B81181102080F31188206800918168012902D040F205200FE00568234933
S321000008D460688847224A0646606829469047214B0146606832469847386000201B
S321000008F0009981F3118801B0F0BDF0B581B004460B4616480A2C416A40F20310ED
S3210000090C5DD209680968CD68AD8AAD0701D1022055E089698E690D6905F0010515
S3210000092849692E43314301D00C204AE0A1000D4C1AE000BFAB1D0000391E00001D
S32100000944951F00002F1F00003F2A000071840000077400002F200000D0F20200A3
S32100000960251B0000911B0000D51B000088F202000959EFF31184102585F31188FE
S3210000097C0D682746041DA868E8B94FF40274D3B148684FF481640668B34214D841
S3210000099896424FF4A16410D3C6680124B24201D202B10024002C40F6082406D0E5
S321000009B401246A601A464A4BAC60984700242046394681F3118801B0F0BDF0B539
S321000009D00B46454D0A28696A40F2031501D328464BE009680968CC68A48AA40777
S321000009EC01D1022043E089698E690C6904F0010449692643314301D00C2038E0D7
S32100000A08384980004158EFF31184102080F311880E680435B06848BB4868056898
S32100000A249D422CBF01250025012705B92F464FF48165EFB1056895422CBF012522
S32100000A400025012705B92F464FF4A16597B1C7680125BA4201D202B1002501275F
S32100000A5C05B92F4640F6082537B1012572601A46204BB56098470025284684F339
S32100000A781188F0BD10B51A4B0A2802D340F203102AE0596A09680968CA68928AA3
S32100000A94920701D1022021E089698B690A6902F0010249691343194301D00C2003
S32100000AB016E00E4980004158EFF31184102282F3118808688268012A02D040F27E
S32100000ACC052005E000228260074A48689047002084F3118810BD00BFAB1D00009E
S32100000AE8D0F2020088F20200391E0000951F000002460020012A05D30BD0022A2F
S32100000B040ED0042A13D016E00A2914D28800BF49405800690FE006290DD28800BB
S32100000B20BC49F7E70A2908D28800BB494058006A03E011B9B9494058806A70474D
S32100000B3C002331B102291DD30AD0042915D30ED018E00A2A16D29100AE4A8B582A
S32100000B581B6D11E00A2A0FD29100AD4A8B58DB690AE0110008D1AB4A8B58DB6A4D
S32100000B7404E0110002D1A94A8B585B680121814011EA0300704770B505460E46A2
S32100000B90002406E0E868A34A50F8240031469047013428698442F5D3002405E0E5
S32100000BAC68699E4950F8240088470134A8698442F6D3002405E0686A994950F85A
S32100000BC8240088470134A86A8442F6D3002406E0E86A954A50F82400314690474D
S32100000BE40134286B8442F5D3002406E0686B904A50F82400314690470134A86BE0
S32100000C008442F5D38C49284688478C492846884728680221016070BD002100E0DE
S32100000C1C0131026C9142FBD3704730B50546002405E0286D834950F824008847E9
S32100000C380134686D8442F6D330BD70B506464568AC69B4F9244010E0A869B0F926
S32100000C5424108C4200DC0CB97948804710F1240252F82400774A31469047013C72
S32100000C7024B2002CECD170BD00B502698A4211D1018E01290ED0022908D00429E1
S32100000C8C08D0202906D0B1F5006F03D06A4880476B4900E06B49884700BD70B5F5
S32100000CA805460E4600240EE0686950F82400C06B664A8068410912EB810100F0C0
S32100000CC41F00012282400A600134A8698442EDD300240EE0E86950F8240000689D
S32100000CE05C4A8068410912EB810100F01F00012282400A600134286A8442EDD3F0
S32100000CFC002405E0E86A554950F8240088470134286B8442F6D3002405E0686B6F
S32100000D18504950F8240088470134A86B8442F6D3002405E0E8684C4950F82400B4
S32100000D348847013428698442F6D3494928468847484B5C6A3F4A20682946006869
S32100000D50904728683EB9012101604449A86D884718B13848804700210160206815
S32100000D6C00680069A84201D13E48F5E770BD30B5054600240EE0686950F82400CA
S32100000D88C06B324A8068410912EB810100F01F00012282400A600134A869844287
S32100000DA4EDD300240EE0E86950F824000068284A8068410912EB810100F01F0004
S32100000DC0012282400A600134286A8442EDD3002405E0E86A204950F82400884776
S32100000DDC0134286B8442F6D3002405E0686B1C4950F8240088470134A86B844214
S32100000DF8F6D3002405E0E868174950F82400884701342869844231E074F3020016
S32100000E1424F3020088F20200FCF2020058F30200C5780000254F0000E31B00003B
S32100000E30ED050000DD630000190C0000270C0000392D00001B270000790C0000E9
S32100000E4CFB5500006531000080E100E015060000D764000019790000430C000026
S32100000E68D0F202002F740000357B0000C3D3894928468847884B586A884A0068DD
S32100000E8429460068904728680021016030BD8349486A006800680069006E7047C3
S32100000EA07F49486A00680068C0688068006E704710B57B4A032802D340F20310E2
S32100000EBC1CE0536A1B681B68DA6840F27F14928A224001D1022011E09A699469EB
S32100000ED8136903F0010352691C43224301D00C2006E06F4A52F820000068006830
S32100000EF40860002010BD00B5032804D26A4B984708B1012000E0002000BD00B5F1
S32100000F10674A9047002814BF006E032000BD604B596A09680968CA689068928A58
S32100000F2C920701D1022014E089698B690A6902F0010249691343194301D00C2073
S32100000F4809E000680168012902D040F2077002E0022101600020704730B54F4A6D
S32100000F64536A1B681B68DA68948A640701D1022015E09B699D691C6904F001046C
S32100000F805B6925432B4301D00C200AE0032802D340F2031005E0444B53F82000AA
S32100000F9C454B9268984730BDF0B581B043685B6A834201D1F62066E0022902D3A4
S32100000FB84FF4E16061E019B9836D0BB9F7205CE092F85C40012314B9824200D0CE
S32100000FD42346002B02D140F2011050E0EFF31183102484F31188009303681B68E6
S32100000FF0012B08D1824202D040F607103EE011B940F607203AE013B940F607008F
S3210000100C36E02A4A904723494F6A3D682D68288E012802D0B0F5007F29D1686962
S32100001028C069C168CA6849688A4222D021498847214A04461668816AD6F884000A
S321000010440160B0699C30006800684FF0AA320168914203D002601A490D20884789
S32100001060606B00B180473868A1680460B0699C3001606168144A686890470020EA
S3210000107C009981F3118801B0F0BD084B53F82220094B1847006800680860002063
S32100001098704700BF430C0000D0F20200790C0000B4F202003D0B0000F90A000035
S321000010B4A50F0000A70C00000962000094F402008526000069B60000006801602B
S321000010D0002141607047F0B581B00168002215468468A54223D2436853F8256086
S321000010EC36683768012F06D18E4204D072680135A54204D315E00135ECE70135F8
S3210000110816E001B453F82560366877683068012801BCEED18E42ECD0BA42EAD04E
S32100001124BB1AB3F1004F00D33A464A6001220A6000221546A5421ED2436853F80D
S32100001140256036683768012FDDD18E42DBD072680135A54211D201B453F8256013
S3210000115C366877683068012801BCF3D18E42F1D0BA42EFD0BB1AB3F1004F00D3CB
S321000011783A464B689342D6D101B0F0BD0068002101607047F0B584B0044602681A
S321000011945168013151600122002526E06668216856F825600022366803927068F8
S321000011B001904968227C0091012A0CD1E7687F693F68BF68022F0CD1019A009B5B
S321000011CCD21AB2F1004F06D303E0421AB2F1004F01D332681AB9029A0AB101225E
S321000011E80392039A01350292A2689542D4D300BF029A002ACDD004B0F0BD064A8E
S32100001204516A09680968C968898AC90702D540F2031000E002207047D0F202007E
S3210000122010B5334833490468204688473249A06E8847216A314AE069904710BD04
S3210000123C30B5054680692F4998308847002405E0686C2D4950F8240088470134A5
S32100001258A86C8442F6D330BDF0B506460F462849486A006800681021456981F358
S321000012741188008E402827D028688068022817D1002405E0E86C204950F8240016
S3210000129088470134286D8442F6D3002407E0E86C1B4A50F824003146806C9047AA
S321000012AC0134286D8442F4D3D5F88800012F01D1154900E015498847124A686BD8
S321000012C8314690471348004710B583B0124A0121104710B583B0102181F3118811
S321000012E40E4A0121104700B584B019E094F402003D120000D37D00003D5E000071
S32100001300332D0000392D0000D0F202007B0D00009B2D00008D11000085110000BD
S3210000131C1B2700006112000000BFE2E71B49082229F0EABF40F2F320704740F2F4
S32100001338F3207047704710B5002107E0C369154C53F8213001319A681B681355FD
S32100001354026A9142F4D310BD10B5002107E083680D4C53F8213001319A681B6840
S321000013701355C2689142F4D310BD7047F0B50646074A81008A58527D012A18D123
S3210000138C054D064A49598A600DE000BFD0F2020000E400E08CF40200C8F202009F
S321000013A8CDAB34122768676000BF55F826400949A0688842F6D1F0BDF0B5054615
S321000013C4064A81008A58527D012A14D1044C054A09598A6009E000BF3412CDAB24
S321000013E08CF40200C8F20200BADC214300BF54F825600B4FB668BE42F8D1F0BD35
S321000013FCF0B583B008490C68E07D012871D1074D07496869884707492846884799
S32100001418AD692F68029709E02143BADC94F40200D0F202004DB600003F130000E6
S32100001434EFF311804FF0100181F311880A4F01903D6835F001053D603D6805F4D1
S321000014507065AE090836002505E0054A12EB8502182313600135B542F7D303E04B
S3210000146C00D0004000D80040BFF35F8F002127E04068182501FB050507CD10EBB4
S32100001488011616F580660C3D32606E68286840F2044710EB0616F619EF68376068
S321000014A46E682F6817EB061616F581662F69376041CD40F20C47ED6810EB06167B
S321000014C0F551FFE7BFF35F8F00990131029800910568A942D2D3034E356855F018
S321000014DC0105356002E000BF00D00040019880F311882069002758BB6E488047BD
S321000014F8384608E0E96851F82010FB43096801300B604F60CF60694D2969884267
S32100001514F2D3684A156839462A68287D01281760576025D197601773634AD5F8C3
S3210000153088009047696A384609680F60296D884218D2E96C51F820100130F5E7E4
S3210000154C5C4988475C4920698847584B196822690968043151F82250002D44D0BB
S3210000156838460130002838DD20680560544920468847207D0128206943D130B96A
S321000015845149D4F888008847206801210160A569A36E019520680293266A0761B3
S321000015A04B49E06D8847AF844A4A24350298314690474949019888473E4A506A35
S321000015BC474A006806601068B16880699C300160F06831698160434915F13C0066
S321000015D888476F66EF663D460FE053F820100968043151F822100029BBD03C48B2
S321000015F48047E06E3B4950F8250088470135206F8542F6D303E010B92068022154
S32100001610016003B0F0BDF0B588B030490E6830680068012806D1F06A002803D0D6
S3210000162C30688068010001D02B4880470691C94307912B4905A888472A49706A98
S321000016488847002505E0F06C274950F8250088470135306D8542F6D3244AF06A74
S3210000166400219047326801239360F26AEFF3118457680F4BE4B23C635C6AB569B6
S3210000168024689C35226094682C60EFF31484FD6A04F004042C4384F314880097EB
S3210000169C17F10C040194396B002202A8343786C06C4623E07B130000D0F2020057
S321000016B88CF40200CD1000007D130000C11300005D130000D71000001DB6000023
S321000016D4D17D00003532000094F40200892300001B270000EB6F0000211200003A
S321000016F0190C0000C5780000204601DF9AE7F0B581B000230B70051E06D1C44E2F
S3210000170C8459C4480268207D012802D00320087041E020690090206800680028E3
S321000017280CBF0120002001B4376801983F68043757F820701E4601BC0FB900B14B
S3210000174401263046012600B90646072016B90870034612E0107D01280FD1106803
S32100001760806802280CBF0120002000280CBF01200020012600B906460120002E9A
S3210000177CE9D083B910680430012240F82520A649D4F888008847607D012804D11D
S32100001798A34951F82500A349816001B0F0BD70B5020002D00320087021E09A4C2F
S321000017B4266812593668136815691B68002B0CBF01230023043656F8255045B9C8
S321000017D03BB1934C23681B6804330225C550034600E007230B7033B9517D0129F9
S321000017EC03D18E4940588E49816070BD00207047874B196800200A7D012A04D1E2
S3210000180809688968022900D1104670478649486A0068006840690068007B7047BF
S3210000182400B57E4B19680B681A68012A01D0804880470A4699680229F9D0014697
S32100001840106C7D4A904700BDF0B583B074490C682268117B014311737849D4F83B
S3210000185C880088476E4A1068017D012905D102682168127B087B1043087322680A
S32100001878117B481EC0B2084000D109B96B488047906801280DD0684A506A0068C3
S3210000189400680068416901918069029000200090664968468847614A556A2D68D0
S321000018B02D686D692E680220B060A869183594300024046005E0E86B5E4950F812
S321000018CC240088470134286C8442F6D3002400E00134A86E8442FBD3317B584A7E
S321000018E8E8689047002406E0686B317B544A50F8240090470134A86B8442F5D377
S321000019045149286E8847514880474B49286F88474F49A8698847002406E0686B13
S3210000192050F824004B49406C88470134A86B8442F5D3EE68002405E0706A47498B
S3210000193C50F8240088470134B06A8442F6D300240EE06F6B002657F8247005E096
S32100001958786A3F4950F8260088470136B86A8642F6D30134A86B8442EDD3324993
S32100001974286F884703B0F0BD00B52C4A516A09680968C9688A8A12F0270203D17F
S3210000199032490220884706E089685C31097811B12F4A0021904700BD00B5214AD4
S321000019AC516A09680968C9688A8A12F0270203D127490220884705E089685C3174
S321000019C8097809B12549884700BD10B5164B10B140F2031047E05A6A12681268BD
S321000019E411B140F2032040E0D3689B8A9B0701D102203AE092699469136903F033
S32100001A00010352691C43224301D00C202FE0034A8058027D012A28D0162025E033
S32100001A1C8CF4020094F40200D7100000C8F202002143BADCD0F202001B270000F9
S32100001A38892E00008D11000021120000BD5B00008B0B000045B30000D57D00000C
S32100001A54673000001D1C00008526000061120000DB12000001E02A4A904710BD9C
S32100001A7030B582B0284C23689B698433012521C3264BFB20984726480047234BEB
S32100001A8C19680A7D012A01D016200AE0896984314A68012A02D040F2071002E093
S32100001AA8096801600020704730B5102383F31188174C23689B698C33012521C391
S32100001AC4154B1220984730BD124B19680A7D012A01D016200AE089698C314A68C0
S32100001AE0012A02D040F2071002E0096801600020704730B582B0102282F31188BC
S32100001AFC0A46074B0146FA20984706480047806994300160002070470B1B000046
S32100001B1894F40200B72600001B27000010B5026A142A06D0272A04D0432A02D059
S32100001B344B2A0CD009E0016B0968142A1FD0272A14D0432A0CD04B2A16D0C24868
S32100001B508047036BD9684C420021D960196809191960ECE70068814201D90130F0
S32100001B6C091A0DE0006881420AD90130091A07E00068084005E00068814201D964
S32100001B880130091A084610BD00B5026A142A16D0272A0BD0432A03D04B2A0DD0C9
S32100001BA4AC4880470068814210D90130091A0DE00068814201D90130091A07E0CF
S32100001BC00068084005E00068814201D90130091A084600BD0346881A3EBF1968A1
S32100001BDC08180130704730B50446006A002514280ED027280CD043280AD04B2824
S32100001BF801D097488047974A206B04219047206B103001E0206B20C00560934994
S32100001C1414F11400884730BD00B5016A142918D0272905D0432916D04B290BD0CE
S32100001C30894880478B490022406B0A60006848608A600720086008E0016B0022F0
S32100001C4C0A6140688860CA6001E08449884700BD70B5EFF31182102383F311883B
S32100001C68046A142C06D0272C04D0432C02D04B2C0CD009E0036B1B68142C13D01E
S32100001C84272C11D0432C0FD04B2C0AD071488047056BEB685E420023EB602B6887
S32100001CA09B192B60ECE70068034004E00068834284BF01301B1A0B6082F3118832
S32100001CBC002070BD70B5054606468069143623E0286B00682268AB6812688242F1
S32100001CD80FD314D9101A984294BF012000200DE02A6BD06843420020D06010687C
S32100001CF4C0181060EAE7801A98428CBF01200020B0B9594930468847A1682046F6
S32100001D1088477068006804001CBF34682468296AE4B11429D2D02729D0D0432938
S32100001D2CCED04B29DAD007E0142935D0272933D0432931D04B2901D04448804758
S32100001D48286BC16842604A420021C16001688918016025E0142906D0272904D0A6
S32100001D64432902D04B2913D0EAE7286B00686A682B68141AA34284BF0132801A74
S32100001D801A1814290ED027290CD043290AD04B29DAD0D7E72A6BD06843421068DC
S32100001D9CD460C0181060E6E7286B426070BDF0B504460E4610F11405006A142877
S32100001DB806D0272804D0432802D04B2822D01FE0206B006861680B1A9A4284BF6F
S32100001DD40131401A87183068244A076031462846904769680020096809B12868ED
S32100001DF0006886421FD1206A14281AD0272818D0432816D04B280AD0134880470A
S32100001E0C216BC86843420020C8600868C0180860D6E7206B4760C1684A420021B6
S32100001E28C16001688918016001E0206B4760F0BDF0B504460E46016A10F1140584
S32100001E44142915D0272913D0432911D04B291BD018E000BF1B27000047B9020080
S32100001E60A559000010E000E0757C0000035A0000AD590000006B006814292BD033
S32100001E7C272916D043290CD04B291AD0C5488047036BD86847420020D860186885
S32100001E98C0191860ECE721688918013182421DD881421BD919E0216889180131E3
S32100001EB4824215D8814213D911E0236830EA03015118814201D8591801316268A0
S32100001ED00A4007E0216889180131824202D8814200D90A46306817460260AE4A8A
S32100001EEC31462846904769680020096809B128680068864214D1206A14280FD0B2
S32100001F0827280DD043280BD04B28B9D1206B4760C1684A420021C1600168891815
S32100001F24016001E0206B4760F0BDF0B504460E46096810F11405086863681F1A38
S32100001F40BA4284BF0133C01A87180F60954A31462846904769680020096809B16D
S32100001F5C28680068864216D1206A142811D027280FD043280DD04B2801D08A4889
S32100001F788047206B4760C1684A420021C16001688918016001E0206B4760F0BD2C
S32100001F94F0B505460F46064680691436006804001CBF346824687F4A30469047E2
S32100001FB0BC423BD170680024006808B134682468DCB9286A142806D0272804D064
S32100001FCC432802D04B280BD01CE02A6B126868682968831A994284BF0130121AE4
S32100001FE8881808E0286BC1680268C460521A0260EFE720680068296A142911D0C0
S3210000200427290FD043290DD04B2901D063488047296B4860C86842420020C86053
S3210000202008688018086001E0296B4860F0BD00B55E498847002000BDF0B582B085
S3210000203C5C4A526A15682D68E9680092898A890701D1022454E010B140F2031452
S3210000205850E0A9698B690A6902F0010249691343194301D00C2445E0504940580D
S32100002074016A432902D040F203343DE0EFF31181102282F3118801914A49884773
S32100002090041E30D1288E012802D0B0F5007F2AD16869C069C168CA6849688A4269
S321000020AC23D043498847434A17680646D7F88410806A0860B8699C3001680968F0
S321000020C84FF0AA330A689A4203D00B603B490D208847706B00B180470098B168CA
S321000020E40068384A0660B8699C300160716868689047019880F31188204602B0FF
S32100002100F0BD10B52A4B5A6A12681268D3689B8A9B0701D102201BE0002802D033
S3210000211C40F2031016E092699469136903F0010352691C43224301D00C200BE094
S321000021381E4A80008058EFF31184102383F31188204A904784F3118810BDF0B549
S3210000215482B00E461746154A516A09680968CA68928A920701D1022447E010B1C3
S3210000217040F2031443E089698B690A6902F0010249691343194301D00C2438E016
S3210000218C094945583068296888421BD94FF481642FE000BF1B270000AD5900001D
S321000021A8A35A0000597C0000D0F20200FCF202002F2000000962000094F402004B
S321000021C48526000069B600005D1C000000200090EFF31184102080F31188094A00
S321000021E069462846904784F31188041E07D13268054B00992846984738600098DF
S321000021FC3060204602B0F0BD5D1C0000D51B000070B5CB4A536A1A6806281268E2
S3210000221853D252691468A468022C01D001284CD1102901D010B948E0002846D1BD
S32100002234146824690CB1012841E001283FD0811E02293DD81B681B6840F6FF2402
S32100002250198E214011D19569B5F9242011E02B46B3F92460B2420FDC002A0DD01A
S3210000226C13F1240656F822301E8E264001D0194603E0013A12B2002AEBD109B9B6
S32100002288AD488047CA689268002AF9D053685B6A9A4212D002280CD1098E01225A
S321000022A4012903D0B1F5007F00D00022022907D032B9032004E0042802D1916D13
S321000022C001B9052070BDF0B581B000919B494C6A246824689B4D228E2A4001D004
S321000022DC224619E06669B669B6F9243012E03546B5F924108B4210DC002B0ED07D
S321000022F815F1240151F8235090492F8E0F4001D02A4603E0013B1BB2002BEAD1E5
S321000023140AB98A481CE00528FBD8136901A1D1E800F000BF222204181A1C108E5C
S32100002330012802D0B0F5007F02D18348804704E00228E8D11046814A9047208E9A
S3210000234CB0F5806F0BD07F488047012104E0002102E07D4A009890477C4A18460F
S32100002368904701B0F0BD0246002041B1794B19680B689A4203D349688A4200D805
S3210000238401207047FF210160002101718160704710B5044671498847416989697F
S321000023A06C3151F8340010BD10B504466C498847416989696C3151F8340010BD1E
S321000023BC10B5044667498847416989696C3151F8340010BD10B504466249884765
S321000023D8416989696C3151F8340010BD10B504465D498847416989696C3111F89A
S321000023F4340010BD10B5044658498847416989696C3151F8340010BD10B50446B5
S3210000241053498847416989696C3151F8340010BD10B504464E49884741698969AB
S3210000242C6C3151F8340010BD10B5044649498847416989696C3151F8340010BDB4
S3210000244810B50446444988474169896911EBC402D06E116F10BD10B504463F4987
S321000024648847416989696C3151F8340010BD10B504463A498847416989696C316A
S3210000248051F8340010BD10B5044635498847416989696C3151F8340010BD10B54C
S3210000249C044630498847416989696C3151F8340010BD10B504462B49884741690D
S321000024B889696C3151F8340010BD10B5044626498847416989696C3151F8340026
S321000024D410BD10B5044621498847416989696C3151F8340010BD10B504461C49DA
S321000024F08847416989696C3151F8340010BD10B5044617498847416989696C3101
S3210000250C51F8340010BD10B5044612498847416989696C3151F8340010BD10B5E2
S3210000252804460D498847416989696C3151F8340010BD00BFD0F202001B270000DA
S32100002544FF0A00004F790000FB550000357B0000DB120000A70C000004F302000B
S321000025603D85000010B5044670498847416989696C3151F8340010BD10B504466E
S3210000257C6B498847416989696C3151F8340010BD10B5044666498847416989690E
S321000025986C3151F8340010BD10B5044661498847416989696C3151F8340010BD2F
S321000025B410B504465C498847416989696C3151F8340010BD10B504465749884781
S321000025D0416989696C3151F8340010BD10B5044652498847416989696C3151F86B
S321000025EC340010BD10B504464D498847416989696C3151F8340010BD10B50446C6
S3210000260848498847416989696C3151F8340010BD10B504464349884741698969C7
S321000026246C3151F8340010BDF0B581B013463F4A566A366836687469A769603775
S32100002640EFF31182102585F31188CDB2B9603D71386000921946182217F10C00A0
S3210000265C28F052FE344FA06B2946B84720688068022804D1F06880682946C06CAE
S32100002678B847009880F3118801B0F0BD30B52A4B5A6A12681268C5B25269EFF319
S321000026941184102080F31188D06B264A29469047254A29469047254A29469047F8
S321000026B084F3118830BD10B504460B461C49486A00680068406900680069002822
S321000026CC04D111461C4A1846904708B11B4880471B492046884710BD00B5124ACB
S321000026E8516A09680968CA68928A520701D4022006E04969896960310C2228F034
S32100002704FFFD002000BD0949486A0068006840698069006E704700B584B0102036
S3210000272080F311880A4880470A4800473D850000D0F202009B2D0000832F0000D9
S3210000273C0D220000C72200006F2300001B27000085260000FD3100004FB60000B1
S32100002758F0B582B00A2802D340F203145DE0C24C646AC24B25682D6853F8200085
S32100002774EB6800949B8A9B0701D102244FE0AC69A369266906F00106646933437E
S321000027901C4301D00C2444E090F85430012B02D040F201543DE06E69EFF31183A8
S321000027AC102484F311880193B04B9847041E2FD1288E012802D0B0F5007F29D168
S321000027C8F069C168CA6849688A4223D0A9498847A94A17680646D7F88410806AFF
S321000027E40860B8699C30016809684FF0AA330A689A4203D00B60A2490D20884715
S32100002800706B00B180470098B16800689E4A0660B8699C3001607168686890472E
S3210000281C019880F31188204602B0F0BDF0B5914B5A6A12681268D3689B8ADB07B5
S3210000283801D4022021E093699D691C6904F001045B6925432B4301D00C2016E079
S3210000285492F85430012B02D040F201700FE0D7681837EFF31186102383F311887B
S32100002870BA68FB6882438B43BA60FB6086F311880020F0BD10B50A2802D340F2DC
S3210000288C031021E0784A774B52F82020586A00680068C3689B8ADB0601D1022051
S321000028A814E080698469036903F0010340691C43204301D00C2009E092F85400B2
S321000028C4012803D11046704A904701E040F2015010BDF0B584B002900391644832
S321000028E0406A01680968CA680090938ADB0701D4022076E091F85430012B02D039
S321000028FC40F201706FE0156800242B460AE09E68012216B1012E00D022460AB1BA
S32100002918012403E01B681B68002BF2D1220006D006205AE0AB68022B04D02D68A0
S321000029342D68002DF8D10AB1152050E08A699469136903F0010352691C432243F4
S3210000295001D00C2045E0CA681832EFF31183102080F311880298106003980193DC
S3210000296C50609468D56810685268044015402C432DD1CA6802234D699362424A9A
S32100002988ED690C46284690473A4A28469047054639480668D6F88420AB6A136043
S321000029A4B2699C32126812684FF0AA371368BB4203D01760324A0D2090476A6BFD
S321000029C002B19047009A1268AB681560B2699C32136069682C4A60689047019BF1
S321000029DC83F31188002004B0F0BDF0B583B0EFF31183102484F31188C5681E4626
S321000029F8AF6A032F02D140F2071017E02B6A6C6A0B4314432B626C622B6A6C6A89
S32100002A14A969EA690B401440022F08D11C4306D00121A96242690146D069194AA2
S32100002A3090470020314681F3118803B0F0BD00B50D4B984700BD30B5C068826A07
S32100002A4C032A02D140F207100BE018308268C3680A604B608468C568AB42F7D1F4
S32100002A68A242F5D1002030BDD0F2020074F30200E72900000962000094F4020063
S32100002A848526000069B60000472A0000155F0000B35E0000F0B5102080F311888F
S32100002AA054494D6A286800684269C368916998315B6C806C0B60012803D304D03E
S32100002ABC022808D031E04D4804E0106800690028F9D14B4880472E68366874692E
S32100002AD8246A6069C069C168CA6849688A4202D045498847044645480768B869EE
S32100002AF49C30006800684FF0AA320168914203D0026040490D208847606B00B197
S32100002B1080472868A1680460B8699C30016061683A4A706890473A48D2E7F0B5B5
S32100002B2C8DB0314A566A3168096849698969B1F9240001386CD3888400B211EB61
S32100002B488000846A208E012802D0B0F5007F63D160690021C0690091C168CA68FD
S32100002B6449688A4204D025498847044601230093234AA06A15688268D5F8841081
S32100002B80012A0EBF4860002205C1306800682149C06810308847AF699C373F6878
S32100002B9C3F684FF0AA333A689A4203D017493B600D2088470098012802D1676BA6
S32100002BB807B1B8473068AD690460A0689C3528606468EFF314850427E66A3D4092
S32100002BD4354385F3148814F10C05099500250894206B29460AAA343413C208AC3F
S32100002BF012E000BFD0F20200972C00002B2B00000962000094F402008526000095
S32100002C0C69B600001B270000356A0000204601DF18488047306800681749C068B1
S32100002C2810308847164A1568AF699C373F683F684FF0AA333A689A4203D012499D
S32100002C443B600D2088473068AD690460A0689C3528606468EFF314850427E66AA2
S32100002C603D40354385F3148814F10C05049500250394206B294605AA343413C2F8
S32100002C7C03AC07E01B270000356A000094F4020085260000204601DFC2E7F0B5F6
S32100002C9887B01F4B5E6A316809684A699269B2F92400013801D21B4880479084E0
S32100002CB400B212EB8000846AC868184910308847174A1768BD699C352D682D6840
S32100002CD04FF0AA332A689A4203D013492B600D2088473068BE690460A0689C36A5
S32100002CEC30606468EFF31485E66A05F00405354385F3148814F10C050395002542
S32100002D080294206B294604AA343413C202AC09E0D0F202001B270000356A0000F2
S32100002D2494F4020085260000204601DFBDE700210160704720B568B3C16B2029D0
S32100002D402AD0C16802698A60028E8A8200220A6113460CC1036A4B6090F83810C2
S32100002D5CE1B10168406810F13C037FF0060528C04B69C3628B69036342628A6847
S32100002D788262012202606B4AC2640A688263CA6802644A6842644FF08072026516
S32100002D940969816420BDF0B58AB0041E67D0C268624E82F83C10766A35682D68FF
S32100002DB0236C6F690096B86998300168DB430B4001D05C4880475164E26B0168A2
S32100002DCCAE69114301602422314601A828F094FA564930468847B869B0F924102B
S32100002DE80E29EADA10EB810201318184514895620768B8699C30006800684FF01E
S32100002E04AA320168914203D002604C490D20884700980068A1680460B8699C3074
S32100002E2001606168206811F13C020A607FF006034B6042694A6382698A630022BF
S32100002E3CCA6282680A6301228A60394A4A6502680A64C2688A644268CA644FF0AB
S32100002E5880728A650069CC630865384A68689047242201A9304628F049FA0AB0CE
S32100002E74F0BD00B584B0C16CC0683C300078884730480047F0B585B000285FD0AE
S32100002E90C5680269AA60028EAA8200262E612E606E60026AEA6090F83820EAB180
S32100002EAC426812F13C03136004687FF00603536063695363A3699363D662A36847
S32100002EC8136301239360174B4FF08077536523681364E36893646368D3649765C9
S32100002EE42469146585F83C1010496E644A6A1249126810600C688268A4699C349E
S32100002F0022604468EFF31485E76A05F004053D4385F31488009414F10C050195E3
S32100002F1C256B2846314602AA343413C26C460FE0B9B70000D0F202001B2700001E
S32100002F383532000094F40200852600004DB7000011850000204601DFAB480047C1
S32100002F5400B584B0AA49486A00680068C16CC0683C3000788847A748004710B5FA
S32100002F7083B0C468C16C94F83C0088472064A3480047F0B58AB004006AD0C2681F
S32100002F8C9D4E82F83C10766A35682D68236C6F690096B86998300168DB430B40A8
S32100002FA801D0954880475164E26B0168AE69114301602422314601A828F0A0F944
S32100002FC4924930468847B869B0F924100E29EADA10EB8102013181848D48956251
S32100002FE00768B8699C30006800684FF0AA320168914203D0026088490D2088474A
S32100002FFC00980068A1680460B8699C3001606168206811F13C020A607FF0060385
S321000030184B6042694A6382698A630022CA6282680A6301228A607B4A4A6502682B
S321000030340A64C2688A644268CA644FF080728A650069CC630865754A6868904791
S32100003050242201A9304628F055F9E068006C00E005200AB0F0BD10B5002808D0AD
S3210000306CEFF31184102282F311886B49884784F3118810BDF0B58AB004465F4B58
S321000030885B6A1D682D68226C6F690093B86998300168D2430A4001D05748804766
S321000030A4E268AE695164E26B0168114301602422314601A828F024F954493046DB
S321000030C08847B869B0F924100E29E9DA10EB8102013181844F4895620768B86954
S321000030DC9C30006800684FF0AA320168914203D002604A490D208847009800681B
S321000030F8A1680460B8699C3001606168206811F13C020A607FF006034B60426932
S321000031144A6382698A630022CA6282680A6301228A603D4A4A6502680A64C2682A
S321000031308A644268CA644FF080728A650069CC630865374A68689047242201A97A
S3210000314C304628F0D9F800200AB0F0BD00B584B0C06C80472948004710B5041E00
S3210000316847D0C06821698160218E81822C49103088472549A06988472A49204646
S3210000318488472A4920468847E168206AC8601C49486A0068006884422DD0208E5F
S321000031A00122012803D0B0F5007F00D00022616811F13C0008607FF0060048604C
S321000031BC206843694B6383698B630023CB6283680B6301238B60124B4B65036805
S321000031D80B64C3688B644368CB644FF08073002A8B650069086504D18864EFF3AD
S321000031F41182D2B20A6310BD704700BF1B270000D0F2020011850000992A000093
S321000032103532000094F4020085260000B9B700004DB7000081300000356A00003C
S3210000322CC75B0000A56A000010B5016931F00101103000231C461AC010BD374911
S32100003248486A006800688069EFF31181102282F311880160016951F001010161D5
S3210000326470472F49486A006800688069016931F001010161006880F31188704794
S321000032802849486A0068006880694169002907D1EFF31181102282F31188016090
S3210000329C8169016241690131416170471E4A516A09680968896948690138486104
S321000032B802D1086880F3118870471849486A006800688069816900290AD1EFF352
S321000032D411814A1E0F2A02D9102282F31188C1604169C1618169013181617047E8
S321000032F00C4A516A09680968896988690138886102D1C86880F3118870470748AF
S3210000330C004707480047102080F311887047002080F31188704700BFD0F2020069
S32100003328473200006732000010B50246C0680D2800F28C8001A1D1E800F000BFFF
S32100003344080F252D2E4445465C5D5E748B759068012101600021416090691BE045
S321000033609068012101600021416008465169884272D29369282100FB0131012461
S3210000337C8B6889691C6000245C600C600130EFE790680121016000214160106AC4
S3210000339801605DE0D9E79068012101600021416008465169884253D2936928213C
S321000033B400FB013101248B6889691C6000245C600C600130EFE7DFE7C1E790688B
S321000033D001210160002141600846516988423BD29369282100FB013101248B682D
S321000033EC89691C6000245C600C600130EFE7C7E7A9E79068012101600021416083
S3210000340808465169884223D293692C2100FB013101248B6889691C6000245C60FF
S321000034240C600130EFE7AFE7906801210160516A81B11548046820680369013324
S3210000344003610069506988472068016901690139016101E00E48804710BDF0B5AD
S3210000345C8DB0089104464268012A6ED303D0032A08D337D0F2E0EFF311821023BC
S3210000347883F31188099262E0026806921268079205E003E094F402001B2700009D
S3210000349400BF079DED68002DF5D1069E3668EFF31183102282F311880B930125AF
S321000034B016F10C0757E8007F67B916F10C0040E80052150006D1BFF35F8F0B4A94
S321000034CC576A3F683F6877600B9A82F31188002DDBD132E0EFF31182102383F33C
S321000034E811880992026806921268079203E001E0D0F2020000BF079DED68002D0C
S32100003504F7D1069E3668EFF31183102282F311880B93012516F10C0757E8007F49
S3210000352067B916F10C0040E80052150006D1BFF35F8F4F4A576A3F683F687760D1
S3210000353C0B9A82F31188002DDBD1A5682E68012E18BF00268327002E79D0069556
S321000035586D68002235E0A269282605FB0626B26805921268012A02D040F2FF1750
S321000035742DE07269926803921268012A0CD1F269736A1268019204939A4205D2AD
S32100003590B76900973A6802929A4202D340F2FF2717E0039F019B7F689A421BD13F
S321000035AC059E7268974202D07760C3270BE0832762690135954200D30025079810
S321000035C8421C636907929A42C5D387B3402F2ED0832F2CD0C32F2AD0002524E040
S321000035E405980390426897420EBF002747604027009B326A1E680021925D0592AC
S3210000360003910499029301398E4201D0711C0391029A03991160089A059911707C
S3210000361CD9E7A169282605FB06160021B6680135316061698D42F4D383270699A9
S321000036384D6801354D604D686069854201D3002048606568012D2DD329D0032DD3
S3210000365402D316D00648804724682468EFF31185102686F311880B9504E000BF69
S32100003670D0F202001B270000BFF35F8F0020E06060600B9810E024682468EFF3E5
S3210000368C1185102686F311880B95BFF35F8F0020E06060600B9880F3118809988E
S321000036A880F3118838460DB0F0BDF0B588B0039104464268012A6AD303D0032A3F
S321000036C408D332D0A7E0EFF31182102383F3118804925EE00268019212680292EA
S321000036E000E000BF029DED68002DFAD1019E3668EFF31183102282F311880693B1
S321000036FC012516F10C0757E8007F67B916F10C0040E80052150006D1BFF35F8F75
S321000037180B4A576A3F683F687760069A82F31188002DDBD133E0EFF31182102312
S3210000373483F311880492026801921268029204E002E000BFD0F2020000BF029D1C
S32100003750ED68002DF6D1019E3668EFF31183102282F311880693012516F10C0742
S3210000376C57E8007F67B916F10C0040E80052150006D1BFF35F8F2B4A576A3F6867
S321000037883F687760069A82F31188002DDBD1A5682A68012A35D16669B6683268C3
S321000037A4012A2DD1E769626A3F680192974227D2A36900931B680293934221D233
S321000037C07668BB4205D1686886421ED06E60C3251CE06A6896420EBF00256E6094
S321000037DC4025009E236A37680021DB5D00910199029301398F4201D0791C009181
S321000037F80098039930600298087003E0A0680021016083256668012E2CD328D0D0
S32100003814032E02D315D00648804724682468EFF31186102787F31188069603E038
S32100003830D0F202001B270000BFF35F8F0020E0606060069810E024682468EFF328
S3210000384C1186102787F311880696BFF35F8F0020E0606060069880F311880498D7
S3210000386880F31188284608B0F0BD8169C069006808600020704730B50546002451
S3210000388406E0A969282004FB001011498847013468698442F5D3002030BDF0B564
S321000038A088B003910446002342680193012A6CD303D0032A08D335D0A2E0EFF3E1
S321000038BC1182102383F31188049260E0026800921268029203E001E073380000C6
S321000038D800BF029DED68002DF7D1009E3668EFF31183102282F311880693012575
S321000038F416F10C0757E8007F67B916F10C0040E80052150006D1BFF35F8F0B4A4C
S32100003910576A3F683F687760069A82F31188002DDBD132E0EFF31182102383F3F8
S3210000392C11880492026800921268029203E001E0D0F2020000BF029DED68002DD8
S32100003948F7D1009E3668EFF31183102282F311880693012516F10C0757E8007F0C
S3210000396467B916F10C0040E80052150006D1BFF35F8F284A576A3F683F687760B0
S32100003980069A82F31188002DDBD1A6683268012A2DD1E569AD682D68012D0AD1CC
S3210000399C226AE76A12680092BA4204D2626A12680292BA4202D3002030601AE0F9
S321000039B8009D7A1E954214BF01350025029A95420ED0A26A009952180399117036
S321000039D4256AE16A2E68002701398E4200D0771C2F6004E07568013575608220D0
S321000039F001906568012D2DD329D0032D02D316D00648804724682468EFF31185A0
S32100003A0C102686F31188069504E000BFD0F202001B270000BFF35F8F0020E0600C
S32100003A286060069810E024682468EFF31185102686F311880695BFF35F8F0020FB
S32100003A44E0606060069880F31188049880F31188019820B9003818BF0120C1B2F9
S32100003A600191019808B0F0BDF0B58DB0089104464268012A69D303D0032A08D303
S32100003A7C32D0EFE0EFF31182102383F3118809925DE0026806921268079200E0D3
S32100003A9800BF079DED68002DFAD1069E3668EFF31183102282F311880B930125A0
S32100003AB416F10C0757E8007F67B916F10C0040E80052150006D1BFF35F8F0B4A8A
S32100003AD0576A3F683F6877600B9A82F31188002DDBD132E0EFF31182102383F332
S32100003AEC11880992026806921268079203E001E0D0F2020000BF079DED68002D02
S32100003B08F7D1069E3668EFF31183102282F311880B93012516F10C0757E8007F3F
S32100003B2467B916F10C0040E80052150006D1BFF35F8F504A576A3F683F687760C6
S32100003B400B9A82F31188002DDBD1A6683268012A18BF00228325002A7BD0069652
S32100003B5C7668002235E0A769282006FB0077BA6805921068012802D040F2FF15F0
S32100003B782DE07A69926803921268012A0CD1FA697B6A1268009204939A4205D28C
S32100003B94BD6902952A6801929A4202D340F2FF2517E0039D009B6D689A421BD157
S32100003BB0059F7A68954202D07D60C3250BE0832562690136964200D300260798FA
S32100003BCC421C636907929A42C5D395B3402D30D0832D2ED0C32D2CD0002626E025
S32100003BE805980390426895420EBF0025456040250298396A02685200525A0592D2
S32100003C040390002102910499076801398F4201D0791C0291039A02991160089AFC
S32100003C2005991180D7E7A169282506FB05150021AD680136296061698E42F4D3CC
S32100003C3C832506994E6801364E604E686069864201D3002048606668012E2DD3A4
S32100003C5829D0032E02D316D00648804724682468EFF31186102787F311880B96D4
S32100003C7404E000BFD0F202001B270000BFF35F8F0020E06060600B9810E02468A6
S32100003C902468EFF31186102787F311880B96BFF35F8F0020E06060600B9880F34C
S32100003CAC1188099880F3118828460DB0F0BD30B50546002406E0A969282004FB45
S32100003CC8001010498847013468698442F5D3002030BDF0B589B00491044642689A
S32100003CE4012A6CD303D0032A08D335D0ABE0EFF31182102383F31188059260E05B
S32100003D00026802921268039203E001E0A33E000000BF039DED68002DF7D1029EA6
S32100003D1C3668EFF31183102282F311880793012516F10C0757E8007F67B916F172
S32100003D380C0040E80052150006D1BFF35F8F0B4A576A3F683F687760079A82F306
S32100003D541188002DDBD132E0EFF31182102383F31188059202680292126803926E
S32100003D7003E001E0D0F2020000BF039DED68002DF7D1029E3668EFF3118310221A
S32100003D8C82F311880793012516F10C0757E8007F67B916F10C0040E800521500AD
S32100003DA806D1BFF35F8F2C4A576A3F683F687760079A82F31188002DDBD1A26894
S32100003DC402921268012A36D16769BF683A68012A2ED1E569626A2D6801929542C1
S32100003DE028D2A36900931E68964223D2029A03927F68AE4205D1506887421ED088
S32100003DFC5760C3251CE01546526897420EBF00256F604025009E236A36687000BD
S32100003E18C35A0393019A0027013A964200D0771C009A049803991760018003E0F0
S32100003E3402990020086083256668012E2CD328D0032E02D315D006488047246821
S32100003E502468EFF31186102787F31188079603E0D0F202001B270000BFF35F8FDB
S32100003E6C0020E0606060079810E024682468EFF31186102787F311880796BFF35B
S32100003E885F8F0020E0606060079880F31188059880F31188284609B0F0BD8169F8
S32100003EA4C0690068086000207047F0B58AB005910446002342680493012A6AD3A1
S32100003EC003D0032A08D332D0A3E0EFF31182102383F3118806925EE002680292F5
S32100003EDC1268039200E000BF039DED68002DFAD1029E3668EFF31183102282F3CE
S32100003EF811880893012516F10C0757E8007F67B916F10C0040E80052150006D1DD
S32100003F14BFF35F8F0B4A576A3F683F687760089A82F31188002DDBD133E0EFF332
S32100003F301182102383F311880692026802921268039204E002E000BFD0F20200AC
S32100003F4C00BF039DED68002DF6D1029E3668EFF31183102282F3118808930125F6
S32100003F6816F10C0757E8007F67B916F10C0040E80052150006D1BFF35F8F294AB3
S32100003F84576A3F683F687760089A82F31188002DDBD1A7683A68012A30D1E56981
S32100003FA0AD682D68012D0BD1256A01952D68E66A0095B54204D2626A1268039204
S32100003FBCB24202D3002038601CE0009D721E954214BF01350025039A954210D0E0
S32100003FD8019D009A2F6852000021A36A05980591D052701E874201D0781C0590D2
S32100003FF40598286004E07D6801357D60822004906568012D2CD328D0032D02D37D
S3210000401015D00648804724682468EFF31185102686F31188089503E0D0F2020078
S3210000402C1B270000BFF35F8F0020E0606060089810E024682468EFF3118510261A
S3210000404886F311880895BFF35F8F0020E0606060089880F31188069880F3118891
S32100004064049820B9003818BF0120C1B2049104980AB0F0BDF0B58DB008910446C5
S321000040804268012A69D303D0032A08D332D0EEE0EFF31182102383F31188099210
S3210000409C5DE0026806921268079200E000BF079DED68002DFAD1069E3668EFF3FC
S321000040B81183102282F311880B93012516F10C0757E8007F67B916F10C0040E81B
S321000040D40052150006D1BFF35F8F0B4A576A3F683F6877600B9A82F31188002DD1
S321000040F0DBD132E0EFF31182102383F311880992026806921268079203E001E0C5
S3210000410CD0F2020000BF079DED68002DF7D1069E3668EFF31183102282F3118828
S321000041280B93012516F10C0757E8007F67B916F10C0040E80052150006D1BFF38E
S321000041445F8F4F4A576A3F683F6877600B9A82F31188002DDBD1A6683268012A8D
S3210000416018BF00228325002A7AD006967668002235E0A769282006FB0077BA6885
S3210000417C05921068012802D040F2FF152DE07A69926803921268012A0CD1FA696D
S321000041987B6A1268009204939A4205D2BD6902952A6801929A4202D340F2FF25E1
S321000041B417E0039D009B6D689A421BD1059F7A68954202D07D60C3250BE0832593
S321000041D062690136964200D300260798421C636907929A42C5D38DB3402D2FD078
S321000041EC832D2DD0C32D2BD0002625E005980390426895420EBF00254560402541
S3210000420802983A6A0368002152F82320059202910499039001398B4201D0591C96
S321000042240291039A02991160089A05991160D8E7A169282506FB05150021AD6824
S321000042400136296061698E42F4D3832506994E6801364E604E686069864201D33E
S3210000425C002048606668012E2CD328D0032E02D315D00648804724682468EFF38A
S321000042781186102787F311880B9603E0D0F202001B270000BFF35F8F0020E060B9
S3210000429460600B9810E024682468EFF31186102787F311880B96BFF35F8F002079
S321000042B0E06060600B9880F31188099880F3118828460DB0F0BDF0B589B0049145
S321000042CC04464268012A6AD303D0032A08D332D0A9E0EFF31182102383F3118857
S321000042E805925EE0026802921268039200E000BF039DED68002DFAD1029E366808
S32100004304EFF31183102282F311880793012516F10C0757E8007F67B916F10C0016
S3210000432040E80052150006D1BFF35F8F0B4A576A3F683F687760079A82F311888B
S3210000433C002DDBD133E0EFF31182102383F311880592026802921268039204E034
S3210000435802E000BFD0F2020000BF039DED68002DF6D1029E3668EFF31183102250
S3210000437482F311880793012516F10C0757E8007F67B916F10C0040E800521500BF
S3210000439006D1BFF35F8F2C4A576A3F683F687760079A82F31188002DDBD1A268A6
S321000043AC02921268012A36D16769BF683A68012A2ED1E569626A2D6801929542D3
S321000043C828D2A36900931E68964223D2029A03927F68AE4205D1506887421ED09A
S321000043E45760C3251CE01546526897420EBF00256F604025009E236A3668019AA4
S3210000440053F8263003930027013A964200D0771C009A049803991760016003E039
S3210000441C02990020086083256668012E2CD328D0032E02D315D006488047246833
S321000044382468EFF31186102787F31188079603E0D0F202001B270000BFF35F8FED
S321000044540020E0606060079810E024682468EFF31186102787F311880796BFF36D
S321000044705F8F0020E0606060079880F31188059880F31188284609B0F0BD81690A
S3210000448CC069006808600020704730B50546002406E0A969282004FB0010114941
S321000044A88847013468698442F5D3002030BDF0B589B00491044600234268039362
S321000044C4012A6CD303D0032A08D335D0A3E0EFF31182102383F31188059260E07B
S321000044E0026801921268029203E001E08B44000000BF029DED68002DF7D1019ED5
S321000044FC3668EFF31182102181F311880792012516F10C0757E8007F67B916F18F
S321000045180C0040E800510D0006D1BFF35F8F0B494F6A3F683F687760079981F332
S321000045341188002DDBD132E0EFF31182102383F311880592026801921268029288
S3210000455003E001E0D0F2020000BF029DED68002DF7D1019E3668EFF31182102136
S3210000456C81F311880792012516F10C0757E8007F67B916F10C0040E800510D00D0
S3210000458806D1BFF35F8F28494F6A3F683F687760079981F31188002DDBD1A668B7
S321000045A4316801292ED1E569AD682D68012D0BD1256A01952D68E76A0095BD4292
S321000045C004D2616A09680291B94202D3002030601AE0009D791E8D4214BF0135AE
S321000045DC002502998D420ED0A26A0099049B019D42F82130E16A2E6800270139A1
S321000045F88E4200D0771C2F6004E0756801357560822003906568012D2CD328D0EC
S32100004614032D02D315D00648804724682468EFF31185102686F31188079503E02E
S32100004630D0F202001B270000BFF35F8F0020E0606060079810E024682468EFF319
S3210000464C1185102686F311880795BFF35F8F0020E0606060079880F311880598CA
S3210000466880F31188039820B9003818BF0120C1B20391039809B0F0BDF0B58CB097
S32100004684079104464268012A69D303D0032A08D332D0EBE0EFF31182102383F35B
S321000046A0118808925DE0026805921268069200E000BF069DED68002DFAD1059E43
S321000046BC3668EFF31183102282F311880A93012516F10C0757E8007F67B916F1C6
S321000046D80C0040E80052150006D1BFF35F8F0B4A576A3F683F6877600A9A82F35A
S321000046F41188002DDBD132E0EFF31182102383F3118808920268059212680692BC
S3210000471003E001E0D0F2020000BF069DED68002DF7D1059E3668EFF3118310226A
S3210000472C82F311880A93012516F10C0757E8007F67B916F10C0040E80052150000
S3210000474806D1BFF35F8F4E4A576A3F683F6877600A9A82F31188002DDBD1A568C2
S321000047642E68012E18BF00268327002E77D005956D68002234E0A2692C2605FB50
S321000047800626B26804921268012A02D040F2FF172CE07269926803921268012A61
S3210000479C0BD1F269776A12680192BA4205D2B269029212680092BA4202D340F245
S321000047B8FF2717E0039F019B7F689A421BD1049E7268974202D07760C3270BE002
S321000047D4832762690135954200D300250698421C636906929A42C6D37FB3402FD3
S321000047F02DD0832F2BD0C32F29D0002523E0049843689F420EBF002747604027C0
S3210000480C0299B36A079A0968306A9847B2690392736A002102911668591E8E4241
S3210000482801D0711C0291039A02991160DAE7A1692C2605FB06160021B668013526
S32100004844316061698D42F4D3832705994D6801354D604D686069854201D3002048
S3210000486048606568012D2DD329D0032D02D316D00648804724682468EFF311850A
S3210000487C102686F311880A9504E000BFD0F202001B270000BFF35F8F0020E0608A
S3210000489860600A9810E024682468EFF31185102686F311880A95BFF35F8F002075
S321000048B4E06060600A9880F31188089880F3118838460CB0F0BDF0B588B0039130
S321000048D004464268012A6AD303D0032A08D332D0A6E0EFF31182102383F3118850
S321000048EC04925EE0026801921268029200E000BF029DED68002DFAD1019E366803
S32100004908EFF31183102282F311880693012516F10C0757E8007F67B916F10C000D
S3210000492440E80052150006D1BFF35F8F0B4A576A3F683F687760069A82F3118882
S32100004940002DDBD133E0EFF31182102383F311880492026801921268029204E02D
S3210000495C02E000BFD0F2020000BF029DED68002DF6D1019E3668EFF31183102248
S3210000497882F311880693012516F10C0757E8007F67B916F10C0040E800521500B6
S3210000499406D1BFF35F8F2B4A576A3F683F687760069A82F31188002DDBD1A76899
S321000049B03A68012A34D16569AD682A68012A2CD1E669626A36680092964226D25B
S321000049CCA36902931B680193934220D26D68B34205D1786885421DD07D60C32551
S321000049E81BE07A6895420EBF00257D6040250299A36A039A0968206A9847A1699C
S32100004A040291626A0E680027511E8E4200D0771C0298076003E0A0680021016084
S32100004A2083256668012E2DD329D0032E02D316D00648804724682468EFF3118644
S32100004A3C102787F31188069604E000BFD0F202001B270000BFF35F8F0020E060C9
S32100004A586060069810E024682468EFF31186102787F311880696BFF35F8F0020B7
S32100004A74E0606060069880F31188049880F31188284608B0F0BD8169C069006880
S32100004A9008600020704730B50546002406E0A9692C2004FB0010114988470134C0
S32100004AAC68698442F5D3002030BDF0B588B003910446002342680193012A6CD3F6
S32100004AC803D0032A08D335D0A2E0EFF31182102383F31188049260E002680092E1
S32100004AE41268029203E001E08B4A000000BF029DED68002DF7D1009E3668EFF343
S32100004B001182102181F311880692012516F10C0757E8007F67B916F10C0040E8D1
S32100004B1C00510D0006D1BFF35F8F0B494F6A3F683F687760069981F31188002D97
S32100004B38DBD132E0EFF31182102383F311880492026800921268029203E001E082
S32100004B54D0F2020000BF029DED68002DF7D1009E3668EFF31182102181F31188E4
S32100004B700692012516F10C0757E8007F67B916F10C0040E800510D0006D1BFF34B
S32100004B8C5F8F28494F6A3F683F687760069981F31188002DDBD1A6683168012974
S32100004BA82DD1E569AD682D68012D0AD1216AE76A09680091B94204D2616A096801
S32100004BC40291B94202D3002030601AE0009D781E854214BF013500250298854239
S32100004BE00ED0236B039A0099A06A9847256AE16A2E68002701398E4200D0771C24
S32100004BFC2F6004E0756801357560822001906568012D2DD329D0032D02D316D02A
S32100004C180648804724682468EFF31185102686F31188069504E000BFD0F202008B
S32100004C341B270000BFF35F8F0020E0606060069810E024682468EFF31185102608
S32100004C5086F311880695BFF35F8F0020E0606060069880F31188049880F3118883
S32100004C6C019820B9003818BF0120C1B20191019808B0F0BDF0B587B002910446C8
S32100004C884268012A69D303D0032A08D332D070E0EFF31180102282F31188039086
S32100004CA45DE0026800921268019200E000BF019DED68002DFAD1009E3668EFF300
S32100004CC01182102181F311880592012516F10C0757E8007F67B916F10C0040E811
S32100004CDC00510D0006D1BFF35F8F0B494F6A3F683F687760059981F31188002DD7
S32100004CF8DBD132E0EFF31182102383F311880392026800921268019203E001E0C3
S32100004D14D0F2020000BF019DED68002DF7D1009E3668EFF31182102181F3118823
S32100004D300592012516F10C0757E8007F67B916F10C0040E800510D0006D1BFF38A
S32100004D4C5F8F10494F6A3F683F687760059981F31188002DDBD1A269029960692D
S32100004D68904765680027012D2AD326D0032D02D314D00648804724682468EFF345
S32100004D841185102686F31188059503E0D0F202001B270000BFF35F8FE7606760FE
S32100004DA005980FE024682468EFF31185102686F311880595BFF35F8FE760676045
S32100004DBC059880F31188039880F31188384607B0F0BDF0B587B002910446426840
S32100004DD8012A6AD303D0032A08D332D070E0EFF31180102282F3118803905EE0A0
S32100004DF4026800921268019200E000BF019DED68002DFAD1009E3668EFF3118259
S32100004E10102181F311880592012516F10C0757E8007F67B916F10C0040E8005101
S32100004E2C0D0006D1BFF35F8F0B494F6A3F683F687760059981F31188002DDBD12A
S32100004E4833E0EFF31182102383F311880392026800921268019204E002E000BF5B
S32100004E64D0F2020000BF019DED68002DF6D1009E3668EFF31182102181F31188D3
S32100004E800592012516F10C0757E8007F67B916F10C0040E800510D0006D1BFF339
S32100004E9C5F8F10494F6A3F683F687760059981F31188002DDBD1226A616902985B
S32100004EB890476568012D2DD329D0032D02D316D00648804724682468EFF311857D
S32100004ED4102686F31188059504E000BFD0F202001B270000BFF35F8F0020E06031
S32100004EF06060059810E024682468EFF31185102686F311880595BFF35F8F002021
S32100004F0CE0606060059880F31188039880F31188002007B0F0BD000030B5C268A0
S32100004F2801699160018E9182002313615360016A1360D16090F83810E1B1016846
S32100004F44406810F13C047FF0060530C04C69C4628C69046343628C68846201241D
S32100004F6004608F4CC4640C688463CC6804644C6844644FF0807404650969816482
S32100004F7C137630BDF0B581B00446874A576A3E6841693668EFF31180102282F3E3
S32100004F98118800908869B0F924100E2901DB8048804710EB810296627E4A0131EE
S32100004FB481841568D5F88400A16A4160A8699C30006800684FF0AA320168914258
S32100004FD003D0026076490D2088473868A1680460A8699C3001606168206811F131
S32100004FEC3C020A607FF006034B6042694A6382698A630022CA6282680A630122E0
S321000050088A60654A4A6502680A64C2688A644268CA644FF080728A650069CC63BE
S321000050240865634A70689047009880F3118801B0F0BDF0B59FB05A494E6A3468B4
S3210000504024681020656980F31188E068017E012902D1002101763AE0002108E039
S3210000505C8368012213B1012B00D00A46002A04D1006800680028F3D139B15049D6
S321000050782046884719AA4F4BA92006219847E068002103E08268022A04D0006817
S3210000509400680028F8D139B148492046884713AA454B1521A9209847A3695969F8
S321000050B098691A6902F001021043014307D04149184688470DAA3D4B0C21A9200B
S321000050CC9847E06B3D4A8068410912EB810100F01F00012282400A60A969B1F946
S321000050E82400013874D3888400B211EB8000856A288E012802D0B0F5007F6BD1C8
S3210000510468690021C0690091C168CA6849688A4204D02D498847054601230093EA
S32100005120224AA86A14688268D4F88410012A0EBF4860002205C130680068254933
S3210000513CC06810308847A7699C373F683F684FF0AA333A689A4203D016493B6082
S321000051580D2088470099012902D16F6B07B1B8473068A4690560A8689C342060A8
S321000051746C68EFF31485E66A05F00405354385F31488089414F10C050995256B10
S321000051902846002739460AAA343413C208AC19E0B9B70000D0F202001B270000D5
S321000051AC94F40200852600004DB70000C75B000071840000A56A0000353200001B
S321000051C880E200E009620000356A0000204601DF1D4880471D4AA86A1468826828
S321000051E4D4F88410012A1ABF002205C14860306800681849C06810308847A7690D
S321000052009C373F683F684FF0AA333A689A4203D012493B600D2088473068A46967
S3210000521C0560A8689C3420606C68EFF31485E66A05F00405354385F314880394EB
S3210000523814F10C050495256B28460027394605AA343413C203AC07E01B2700003D
S3210000525494F40200356A000085260000204601DFB8E7F0B58DB03B494E6A3068C9
S3210000527000681022416982F31188C268127E012A00F0BC80C06B354B80684209DB
S3210000528C13EB820200F01F000123896983401360B1F924000138C0F0AB80888435
S321000052A800B211EB8000856A288E012802D0B0F5007F5CD168690021C069009119
S321000052C4C168CA6849688A4204D024498847054601230093224AA86A14688268FA
S321000052E0D4F88410012A0EBF4860002205C1306800681D49C06810308847A76917
S321000052FC9C373F683F684FF0AA333A689A4203D017493B600D2088470099012948
S3210000531802D16F6B07B1B8473068A4690560A8689C3420606C68EFF31485E66A06
S3210000533405F00405354385F31488089414F10C050995256B2846002739460AAA25
S32100005350343413C208AC0BE0D0F2020080E200E00962000094F40200356A0000C5
S3210000536C85260000204601DF42E01D4AA86A14688268D4F88410012A1ABF0022A7
S3210000538805C14860306800681749C06810308847A7699C373F683F684FF0AA33B1
S321000053A43A689A4203D012493B600D2088473068A4690560A8689C3420606C6866
S321000053C0EFF31485E66A05F00405354385F31488039414F10C050495256B284632
S321000053DC0027394605AA343413C203AC06E000BF94F40200356A000085260000F5
S321000053F8204601DFA548004770B5A54A566A366840F2071431680620CB684A69B5
S321000054149B8A23401FD00B8E13F0020319D119469369B3F9242012E01C46B4F928
S321000054302450AA4200DC0AB99648804714F1240555F82240258EAD0701D5214635
S3210000544C03E0013A12B2002AEAD101B1086C70BD8E4B062802D340F2031017E00C
S32100005468596A09680968C968898A890701D102200EE0884951F82000C06B874A91
S321000054848068410912EB810100F01F00012282400A60002070477F4A536A1B6817
S321000054A001291B6800D021B9062805D340F2031027E040F6083024E0DA68928A71
S321000054BC920701D102201EE0754A012952F820000AD1C16B744B89684A0913EBE8
S321000054D8820201F01F0101238B401360C16BC868012809D088686E4A410912EB6E
S321000054F4810100F01F00012282400A6000207047644A062802D340F2031017E0F2
S32100005510516A09680968C968898A890701D102200EE05E4951F82000C06B5E4A43
S3210000552C8068410912EB810100F01F00012282400A600020704710B5544A0628E6
S32100005548546A34BF0122002224680123246802B9134640F20312E3B1E2680123B2
S32100005564928A9207920F00D1134602229BB14A4A52F82000C06B494B8068420945
S3210000558013EB820200F01F000123834010681840003818BF0120087000221046A1
S3210000559C10BD10B53D4B062834BF012200225C6A01232468246802B9134640F225
S321000055B80312E3B1E2680123928A9207920F00D1134602229BB1334A52F82000E3
S321000055D4C06B334B8068420913EB820200F01F000123834010681840003818BF82
S321000055F0012008700022104610BD10B50446C0680121017621698160218E8182CE
S3210000560C2749103088472749A0698847264920468847264920468847E168206A9A
S32100005628C8601B49486A0068006884422DD0208E0122012803D0B0F5007F00D0CE
S321000056440022616811F13C0008607FF006004860206843694B6383698B630023B7
S32100005660CB6283680B6301238B60144B4B6503680B64C3688B644368CB644FF077
S3210000567C8073002A8B650069086504D18864EFF31182D2B20A6310BD1B270000F3
S32100005698D0F2020024F3020080E100E080E200E000E100E0356A000035320000C9
S321000056B4C75B0000A56A0000B9B70000102282F31188054B1A68936A92699C325B
S321000056D013600A46024B01460E20184794F40200B726000070B50D46AB490024DD
S321000056EC4A6A40F20311126840F21726126830B9D26840F26723928A02211A40C7
S3210000570803D10846A349884701E0A349445821688D4202D361688D4202D99E49B2
S3210000572430468847287870BD70B50D46994900244A6A40F20311126840F21726F0
S32100005740126830B9D26840F26723928A02211A4003D108469149884701E09149CF
S3210000575C445821688D4203D3616801398D4202D98B4930468847288870BD70B599
S321000057780D46874900244A6A40F20311126840F21726126830B9D26840F267238C
S32100005794928A02211A4003D108467F49884701E07E49445821688D4203D3616866
S321000057B003398D4202D9794930468847286870BDF0B50D461746744900244A6A43
S321000057CC40F20311126840F21726126830B9D26840F26723928A02211A4003D1C6
S321000057E808466C49884701E06B49445821688D4202D361688D4202D966493046D7
S3210000580488472F70F0BDF0B50D461746614900244A6A40F20311126840F2172661
S32100005820126830B9D26840F26723928A02211A4003D108465949884701E059495E
S3210000583C445821688D4203D3616801398D4202D95349304688472F80F0BDF0B5F1
S321000058580D4617464E4900244A6A40F20311126840F21726126830B9D26840F211
S321000058746723928A02211A4003D108464649884701E04649445821688D4203D335
S32100005890616803398D4202D94049304688472F60F0BDF0B50C4616461F463B4901
S321000058AC00254A6A126840F20311126830B9D26840F26723928A02211A4003D17B
S321000058C808463449884701E03349455829688C4202D369688C4203D92E4940F2D2
S321000058E4172088472078304038432070F0BDF0B50C4616461F46274900254A6ADB
S32100005900126840F20311126830B9D26840F26723928A02211A4003D10846204948
S3210000591C884701E01F49455829688C4203D3696801398C4203D91A4940F21720FE
S3210000593888472088304038432080F0BDF0B50C4616461F46124900254A6A126838
S3210000595440F20311126830B9D26840F26723928A02211A4003D108460B498847B4
S3210000597001E00B49455829688C4203D3696803398C4203D9054940F217208847D1
S3210000598C2068304038432060F0BD00BFD0F202008526000044F302004068002129
S321000059A801607047F0B50CC8186842F820100130186001381EE0490852F8217056
S321000059C452F820503B682C686E681B682468B668A34206D312D91B1BB34294BFA6
S321000059E00123002304E0E31AB3428CBF0123002333B142F8215042F8207008464F
S321000059FC411EDED2F0BDF0B581B041680A68013A0A600168002451F822000860D7
S32100005A183DE0851C51F8250051F8237000683E687F6800683668BF68B04206D377
S32100005A340BD9801BB84294BF0120002004E0301AB8428CBF0120002000B92B4665
S32100005A5051F8240051F8237001B4056878683E682D68806836680190B54201BCE3
S32100005A6C07D316D9AD1B009EB54294BF0125002505E0751B009EB5428CBF0125D9
S32100005A88002545B141F8230041F824701C466000431C9342BDD301B0F0BDF0B52F
S32100005AA483B0002305E0056855F823508D4204D0013342681468A342F5D3A342E9
S32100005AC001D1012077E0013C1460A34272D20268002052F8241042F823101E46C7
S32100005ADC41E0811C52F8217052F825003F680191016840683F68096880688F4285
S32100005AF806D30BD9791A88422CBF0120002004E0C91B884234BF0120002000B9C7
S32100005B14019D52F8250001B452F8261001910F68016840683F6880680968029081
S32100005B308F4201BC07D319D97F1A01998F4294BF0127002705E0CF1B01998F4219
S32100005B4C8CBF012700275FB1009942F8251042F826002E46012002907000451C2D
S32100005B68A542B8D3029808BB1EE0400852F8207052F8235039682C686E680968F3
S32100005B842468B668A14206D312D9091BB14294BF0121002104E0611AB1428CBF64
S32100005BA00121002131B142F8205042F823700346581EDED2002003B0F0BD000058
S32100005BBC00687FF000020260704730B50546C4681CE08A680AB1012A17D1288E07
S32100005BD8012802D0B0F5007F09D10968E8684968C06A884203D268698A4AC069A9
S32100005BF49047206800687FF0000201682160026000E00C6821680029DFD130BD68
S32100005C1070B5834910B140F2031067E04A6A12681268D168898A890701D10220BC
S32100005C2C5EE091698C690B6903F0010349691C43214301D00C2053E077494158C0
S32100005C4808680068013002D040F601004AE08868138E01280CD1022B19D1D46B11
S32100005C648B6924681B68013C013BA34294BF012300230AE0012B02D0B3F5007F14
S32100005C8006D14B69D46BA34294BF0123002313B940F601102AE001280BD10B6824
S32100005C9C8C69EFF311802468651E461EB54201D284F31188D860EFF3118410234F
S32100005CB883F31188D36808681D6805601960138E012B02D0B3F5007F09D1D368D2
S32100005CD4DB6A43604969994203D25069514AC069904784F31188002070BDF0B50E
S32100005CF084B04B4A526A009210B140F203108AE015682D68E9688A8A920701D129
S32100005D0C022082E0AA699469136903F0010352691C43224301D00C2077E03F4A12
S32100005D28845820680068013002D140F205106EE00A6842B193680BB1012B04D1D7
S32100005D44A24205D04FF4837063E040F2062060E0EFF31180102282F3118801902F
S32100005D60A068012804D12068C2688368029303920A6812684FF0FF3013680B6014
S32100005D7C1060288E012802D0B0F5007F35D1EA682168E668D26A4968F6698A4279
S32100005D9803D268691F4AC0699047F168CA6849688A4224D01F49304688470646E5
S32100005DB41E480768D7F88420B16A1160B9699C31096809684FF0AA330A689A42BE
S32100005DD003D00B6017490D208847716B01B188470098B96900689C310660B0684D
S32100005DEC08607168114A68689047019880F31188A068012808D1EFF31181039894
S32100005E080139421E914201D280F31188002004B0F0BD00BF77610000D0F2020050
S32100005E2458F30200196100000962000094F402008526000069B60000F0B581B000
S32100005E40036800221A6004E0002644F82260013292B205894468AA42F6D301B456
S32100005E5C4289013A92B24FF00047550902F01F0237FA02F0AA00165906431651F7
S32100005E781A68EF403A431A60002201BC07E00C235343046900251B592C4630C36A
S32100005E94013243699A42F4D3C068CA6B41600260C16082600846D549884701B01B
S32100005EB0F0BDF0B581B0CA6B04690C2302FB034590CD63682D6847F823100133D4
S32100005ECC6360AB4201D30023636001B493B24FF000465C0903F01F0336FA03F529
S32100005EE84768A3002846DD590543DD51E64001BC0468C068236833432360436886
S32100005F04DB68DB6A9A4201D20B460CC001B0F0BDF0B583B0C3680669D9689C6812
S32100005F20CA6BC9680094CA620C2104FB016102960C688D68216801312160A94283
S32100005F3C01D30021216064684FF00045A14214D101B4019989B24F0901F01F04BF
S32100005F58416835FA04F0BE0074588443745001BC05D1016835FA07F40E68A643C1
S32100005F740E600099914220D0029F0C2102FB01710C688E68216801312160B1426B
S32100005F9001D3002121606468A14210D191B24A0901F01F04416835FA04F79600D6
S32100005FAC7458BC43745004D10168D5400A68AA430A60016840680968B1FA81F189
S32100005FC850F82100B0FA80F010EB4110029A0C2100FB0121186008684968006801
S32100005FE451F82000586003B0F0BDF0B584B00391CA68C96B0291D56AD1628D4273
S3210000600038D00C2203696A43D658D41837683A463B4617E0616803B451F8221083
S3210000601C05980291884203BC09D004B4019A41F82320A16801338B4204BC00D364
S321000060380023A16801328A4200D3002271688A42E4D173609F4211D1AAB255097C
S321000060546B4902F01F03426831FA03F6AC00A358B343A35004D10268E940136821
S321000060708B4313600C22029907694A43D559D4192E683246334617E0616803B4EE
S3210000608C51F8221005980291884203BC09D004B4019A41F82320A16801338B420C
S321000060A804BC00D30023A16801328A4200D3002269688A42E4D16B609E4212D143
S321000060C402998AB253094E4902F01F05426831FA05F49E00B558A543B55004D19F
S321000060E00268D94013688B43136014C812684168B2FA82F254F82230B3FA83F37F
S321000060FC13EB42100C2200FB0272086010685268006852F82000486004B0F0BD20
S32100006118F0B583B001B4C2680192D268036902920C2201FB02338AB2344E540967
S3210000613402F01F0236FA02F54768A2002846D5590543D551E64001BC04681A68E3
S3210000615020683043206010689C6800B92046013810605A68019B42F82030009AEC
S3210000616C9160D868C16203B0F0BDF0B581B0C268D368009393688B4221D2056966
S321000061880C2403FB04542568A6682C6801342C60B44201D300242C606D68AC4242
S321000061A411D19BB2164E5D0903F01F03DE404768AC00E359B343E35105D1114CB9
S321000061C0EC4005682B68A3432B60009B9160DB68D96212C809688068B1FA81F1C6
S321000061DC54F82130B3FA83F313EB411111600C2303FB010108684968006851F81F
S321000061F82000506001B0F0BDF978000000000080F0B584B0C3685A68D568516CA6
S32100006214EC6A0095A14227D202B40C240569476801FB04558CB24FF0004166091C
S32100006230039104F01F04E140B4000297E7590F4302996750039CF4400668306876
S3210000624C20432C6830602068AE6802BC00B93046013820606C6844F8202000987D
S321000062681960C16218689860DA60104604B0F0BDF0B581B0C268D1689568CB6BA3
S3210000628400939D4221D204690C2305FB03431C689E68236801332360B34201D31C
S321000062A0002323606468A34211D1ABB2164E5D0903F01F03DE404768AC00E359B2
S321000062BCB343E35105D1114BEB4005682C689C432C60CB68009CDC6228C81B684D
S321000062D88068B3FA83F355F82340B4FA84F414EB431313600C2404FB0303186846
S321000062F45B68006853F820005060401A18BF012001B0F0BD00000080D74A516A36
S3210000631009680968C968898A890702D040F2031000E002207047D14A516A09689E
S3210000632C0968C968898A890702D040F2031000E002207047CA4A516A0968096889
S32100006348C968898A890702D040F2031000E002207047C44A516A09680968C968B3
S32100006364898A890702D040F2031000E002207047BD4A516A09680968C968898ABC
S32100006380890702D040F2031000E002207047B74A516A09680968C968898A890729
S3210000639C02D040F2031000E002207047B04A516A09680968C968898A890702D0D2
S321000063B840F2031000E002207047AA4A516A09680968C968898A890702D040F25C
S321000063D4031000E002207047F0B50746027D0025114069D001690C30012903D315
S321000063F004D0032929D339D09D4880479D4B02687868394698473C680321A16081
S3210000640C796A6160B96AE160B869256102285BD12562E561954978688847A0610E
S321000064283E6B0146304625F0C5FA396805460968304625F0BFFA85422EBF281A81
S32100006444301A281836E0386802218160796A4160B96AC160B9690561022939D16D
S3210000646014302B462A4629462EC033E0834B02687868394698473C680321A16046
S3210000647C796A6160B96AE160B8692561022823D12562E561794978688847A061F2
S321000064983E6B0146304625F08DFA396805460968304625F087FA85422EBF281A81
S321000064B4301A281860610BE00068796A4160B96A8560C160B9690561022901D1F6
S321000064D00562C561F0BD70B50446006800268168012904D101690A68896AD1608B
S321000064EC18E00546032915D1624A6068214690472068C168A1420DD061B1EA68B2
S321000065081168536A4B60936ACB608E6092690E61022A01D10E62CE61616A416007
S32100006524A16A8660C1600661A069022802D12068C661066270BDF0B507468069B7
S32100006540012802D140F203303AE04FF40270B9B37A6A7868926903689A1A8A42F3
S3210000655C02D24FF481602DE03A68926812B140F2071027E0404B0A463946984730
S321000065783C680321A160796A6160B96AE1600021B8692161022816D12162E16196
S32100006594384978688847A0613E6B0146304625F00BFA396805460968304625F04C
S321000065B005FA85422EBF281A301A281860610020F0BDF0B507460068806810B1B9
S321000065CC40F207102EE0786802688A4202D24FF4816027E0264B0A463946984722
S321000065E83C680321A160796A6160B96AE1600021B8692161022816D12162E16126
S321000066041C4978688847A0613E6B0146304625F0D3F9396805460968304625F030
S32100006620CDF985422EBF281A301A281860610020F0BDF0B504460568A86810B94F
S3210000663C40F2055026E00027012806D129690D4A48680E689047B76005E002287C
S3210000665803D0094A6068214690472068C068A04210D00BE0D0F202001B27000091
S32100006674AB1D0000251B0000391E0000951F000010B1E86800688760AF60384604
S32100006690F0BD30B50268936813B940F2055020E0012B02D140F205701BE00B688A
S321000066AC9C6814B140F2056015E0D5681DB1854201D02D68AC6001259D604D6A59
S321000066C85D608D6ADD608D691C61022D02D10D68EC612C62D1601861204630BDFD
S321000066E400B502689268032A05D010460EE003200CE0844880478269012AF8D3B2
S3210000670005D0022AF7D10068006A0128F1D104200860002000BDF0B590B0044659
S3210000671C2668002576682F46B06801900FE00198774950F8270000908847010095
S321000067380098006C04D0744B0A900AAAB32098470137F0688742ECDB306901905E
S321000067542F461BE00C217943019BC818021D406852680290039258580090694BB2
